:100000000C94DD020C940E030C940E030C940E035E
:100010000C940E030C940E030C940E030C940E031C
:100020000C940E030C940E030C940E030C940E030C
:100030000C940E030C940E030C940E030C940E03FC
:100040000C940E030C940E030C940E030C940E03EC
:100050000C940E250C940E030C940E030C94642443
:100060000C940E030C94D8240C94AE240C940E0320
:100070000C940E030C940E030C940E030C940E03BC
:100080000C940E030C940E030C940E030C940E03AC
:100090000C940E030C940E030C940E030C940E039C
:1000A0000C940E030C940E030C940E030C940E038C
:1000B0000C940E030C940E030C940E030C940E037C
:1000C0000C940E030C940E030C940E030C940E036C
:1000D0000C940E030C940E030C940E030C940E035C
:1000E0000C940E030C9460030C94EE0A0C94E91B20
:1000F0000C9472150C94A1090C94310D0C94CE0A39
:100100000C945E180C940E120C94DC1A0C941318B8
:100110000C94A80B0C94220B0C94F4030C94F30392
:100120000C944D0D0C9410070C9496130C94EE182F
:100130000C948A150C9441090C94B3170C94D60EA8
:100140000C9474030C94F31A0C94F8120C94C40FCE
:100150000C940E130C94FD190C94820B0C949A14AD
:100160000C9452130C94710D0C9496100C94231B48
:100170000C945D030C94481A0C9451030C948C1845
:100180000C94D5180C942D0C0C944E190C940A1B3D
:100190000C94AE100C94BA150C94E00B0C949919B5
:1001A0000C94A2160C9481170C9422100C94BE0E81
:1001B0000C94DE130C94F50C0C94E8150C948A0A3C
:1001C0000C9455030C9423060C94CA0C0C947E03D7
:1001D0000C94551B0C94D4160C94D7050C94AA0CB3
:1001E0000C9423090C942B070C9426130C943C12AA
:1001F0000C94060F0C94FF050C94E3170C948A04DE
:100200000C94460C0C949E1B0C94C00B0C946C1B11
:100210000C94001C0C9436170C9450090C94870D08
:100220000C94851B0C9419070C9439250C94801997
:100230000C94EE0E0C949A120C9418160C941E1931
:100240000C942C180C9452120C94E0120C94D215AD
:100250000C942A150C94DC0F0C94AC0F0C94A6058E
:100260000C946A120C947A1A0C943E110C94B219E4
:100270000C9445180C94161A0C94320A0C949C1188
:100280000C94C31A0C946E0A0C9470030C948203A1
:100290000C94BE0A0C9430160C941F170C94110D7C
:1002A0000C94191C0C9482120C948A0C0C94F61069
:1002B0000C9452040C94E1050C944D240C94B2144B
:1002C0000C94C6100C9429050C94B2120C94CD0514
:1002D0000C94F6130C944E0F0C9434070C94000CF1
:1002E0000C94BC180C9424140C942A0C0C94611AD1
:1002F0000C94A3180C94A60A0C94BE090C94911AA1
:100300000C94D01B0C940A100C943C140C94841480
:100310000C9474160C9422070C94641C0C94FE0923
:100320000C9475180C9486030C9442150C94681761
:100330000C94DE100C944E0A0C9421040C94660369
:100340000C94F6110C940E110C94BB160C945414CE
:100350000C94DC090C945A150C94E0110C941209BD
:100360000C94FA140C943C130C94CA120C941E0FA7
:100370000C9454110C946A030C94961C0C949003E6
:100380000C94C6130C948C030C94321C0C948C1695
:100390000C94BE050C94ED160C943C1B0C949A170F
:1003A0000C947E0F0C944B030C9437190C942F1A59
:1003B0000C94D71C0C9407190C94CC170C948F092F
:1003C0000C949D0E0C94CA110C9484110C945C1620
:1003D0000C94CA140C94300C0C94620C0C943A10CB
:1003E0000C944A0B0C9468130C9446160C94360F1C
:1003F0000C940A0B0C94320B0C946C140C94F20FAA
:100400000C94B2110C9444040C94E4190C94960FBF
:100410000C94CD0C0C94620B0C9426120C946C1161
:100420000C944B1C0C94CB190C94AA1A0C944405F4
:100430000C9459030C94160A0C94660F0C947E13BA
:100440000C94D7040C94A2150C9412150C948B03E5
:100450000C94E2140C947D1C0C947E100C940617E2
:100460000C9452100C9467190C9428050C940E14DB
:100470000C9430040C9468100C944F170C94FA17D9
:100480000C9400160C94AF1C0C94B71B0C94261102
:100490000C9478030C94AE13000020002300260077
:1004A00029002C002F00320000010000030106018A
:1004B000090100002100240027002A002D0030003F
:1004C000330001010000040107010A0100002200BD
:1004D000250028002B002E0031003400020100000E
:1004E000050108010B0105050505070508080808B1
:1004F000020202020A0A08080404040401010101BC
:1005000001010101030303030303030304070707B6
:100510000C0C0C0C0C0C0C0C02020202060606065B
:10052000060606060B0B0B0B0B0B0B0B0102102028
:100530002008081020401020408002010201080419
:1005400002010102040810204080804020100804AD
:100550000201800402018040201008040201080406
:10056000020101020408102040800102040810204A
:10057000408000000A0B02090C0D0E08070304015D
:10058000000000000000000000000000000000006B
:100590000000000000000000000000000000121138
:1005A000100000000000000000000000000000003B
:1005B0000000000000000000392511241FBECFEF0D
:1005C000D1E2DEBFCDBF00E00CBF19E0A0E0B2E099
:1005D000E2EBF6E500E00BBF02C007900D92A43BF2
:1005E000B107D9F72BE0A4EBB9E001C01D92A2340A
:1005F000B207E1F712E0CDEDD2E000E006C02197AE
:100600000109802FFE010E945128CC3DD10780E0D6
:100610000807A9F70E9483250C94572B0C9400001F
:100620009C012150310927393105A8F4F90183E0F3
:10063000F595E7958A95E1F7E658F54F8081082E04
:10064000000C990B2770332702C0959587952A9542
:10065000E2F78170089580E008958150823108F0BA
:100660005AC0E82FF0E08827E75CFC4F8F4F0C94CE
:10067000512859035D034B03510355038B0360035A
:1006800066036A037003740378037E0382038B039B
:1006900086038C039003809180008F778093800085
:1006A0000895809180008F7DF9CF80918000877FB1
:1006B000F5CF84B58F7784BD089584B58F7DFBCF4A
:1006C0008091B0008F778093B00008958091B00042
:1006D0008F7DF9CF809190008F778093900008955F
:1006E000809190008F7DF9CF80919000877FF5CF2A
:1006F0008091A0008F778093A00008958091A00042
:100700008F7DF9CF8091A000877FF5CF8091200168
:100710008F77809320010895809120018F7DF9CFFC
:1007200080912001877FF5CF1F93CF93DF93282FF0
:1007300030E0F901EE58FA4F8491F901E45DFA4F87
:10074000D491F901EA51FB4FC491CC23A9F0162FA3
:1007500081110E942D03EC2FF0E0EE0FFF1FE453F8
:10076000FB4FA591B4918FB7F894EC91111108C08B
:10077000D095DE23DC938FBFDF91CF911F91089539
:10078000DE2BF8CFCF93DF9390E0FC01E45DFA4FCE
:1007900024918A519B4FFC0184918823D1F090E0F1
:1007A000880F991FFC01EE54FB4FA591B491FC01F9
:1007B000E453FB4FC591D491623071F49FB7F89424
:1007C0003C91822F809583238C93E8812E2B288364
:1007D0009FBFDF91CF9108958FB7F894EC912E2BA6
:1007E0002C938FBFF6CF0895AF92BF92CF92DF9236
:1007F000EF92FF920F931F93CF93DF936C017B01D6
:100800008B01040F151FEB015E01AE18BF08C01766
:10081000D10759F06991D601ED91FC910190F081D9
:10082000E02DC6011995892B79F7C501DF91CF918C
:100830001F910F91FF90EF90DF90CF90BF90AF90FE
:100840000895FC01538D448D252F30E0842F90E0D6
:10085000821B930B541710F0CF96089501970895BB
:10086000FC01918D828D981761F0A28DAE0FBF2F84
:10087000B11D5D968C91928D9F5F9F73928F90E0DA
:1008800008958FEF9FEF0895FC01918D828D981749
:1008900031F0828DE80FF11D858D90E008958FEF86
:1008A0009FEF0895FC01918D228D892F90E0805C4F
:1008B0009F4F821B91098F73992708958DE89AE0C5
:1008C0000E94520421E0892B09F420E0822F089530
:1008D000FC01A48DA80FB92FB11DA35ABF4F2C91B5
:1008E000848D90E001968F739927848FA689B789AC
:1008F0002C93A089B1898C91837080648C93938DA3
:10090000848D981306C00288F389E02D80818F7D45
:1009100080830895EF92FF920F931F93CF93DF93FD
:10092000EC0181E0888F9B8D8C8D98131AC0E8892B
:10093000F989808185FF15C09FB7F894EE89FF89FA
:100940006083E889F98980818370806480839FBF98
:1009500081E090E0DF91CF911F910F91FF90EF9098
:100960000895F62E0B8D10E00F5F1F4F0F731127A8
:10097000E02E8C8D8E110CC00FB607FCFACFE889E3
:10098000F989808185FFF5CFCE010E946804F1CFFF
:10099000EB8DEC0FFD2FF11DE35AFF4FF0829FB757
:1009A000F8940B8FEA89FB8980818062CFCFCF9347
:1009B000DF93EC01888D8823B9F0AA89BB89E88987
:1009C000F9898C9185FD03C0808186FD0DC00FB62D
:1009D00007FCF7CF8C9185FFF2CF808185FFEDCFAB
:1009E000CE010E946804E9CFDF91CF91089580E0A5
:1009F00090E0892B29F00E945E0481110E94000082
:100A000080E090E0892B49F080E090E0892B29F08C
:100A10000E94000081110E94000080E090E0892B7C
:100A200049F080E090E0892B29F00E9400008111BC
:100A30000E94000080E090E0892B49F080E090E087
:100A4000892B29F00E94000081110C940000089568
:100A5000089590E080E00895E1E5FAE02081318199
:100A600033832283918380832FB7F8948091760A11
:100A70009091770AA091780AB091790A2FBF848368
:100A80009583A683B7830895CF93DF9380916F0AF0
:100A90009091700ACAE0D0E020916D0A30916E0A00
:100AA00028173907C1F0FC01EE0FFF1FE75AF54F79
:100AB0000190F081E02D24813581213D3A4834F0C8
:100AC0002481358121503109358324830196BE016B
:100AD0000E943D28E1CFDF91CF910895CF93DF931E
:100AE000EC0180916D0A90916E0AE0916F0AF0918D
:100AF000700A01962AE030E0B9010E943D288E1765
:100B00009F0711F18C819D814A815B81840F951F24
:100B10009D838C83E0916D0AF0916E0AEE0FFF1FAA
:100B2000E75AF54FD183C08380916D0A90916E0A88
:100B30000196B9010E943D2890936E0A80936D0A38
:100B400080E0DF91CF91089581E0FBCFAFE2BAE082
:100B50008EEB95E014969C938E931397EBE2FAE05C
:100B60008DEC95E09183808387ED95E0938382837C
:100B70001296FC93EE931197CD010895CF93C82F51
:100B800061E085E10E94C20361E084E10E94C2034A
:100B9000C0932F0A80E0CF91089561E084E10E9424
:100BA000940360E085E10E94940380E0089560E092
:100BB00084E10E94940361E085E10E94940380E057
:100BC0000895A6E2BAE082E199E014969C938E9390
:100BD0001397EEE1FAE09183808381E499E09383B7
:100BE00082838DE494E29583848383E299E0978302
:100BF00086831296FC93EE931197CD010895A8E198
:100C0000BAE083E296E014969C938E931397EEE0FD
:100C1000FAE084E397E0918380838BE297E093830B
:100C2000828382E297E09583848389E197E09783CA
:100C3000868380E197E0918780871296FC93EE93FC
:100C40001197CD010895CF93DF93C82F62E086E11D
:100C50000E94C20362E087E10E94C20362E088E171
:100C60000E94C20362E089E10E94C20362E08AE15D
:100C70000E94C203C093180AEAEFF9E020EF39E0BE
:100C8000C6EED9E06CED79E081E090E0119211922E
:100C900011921192D9018D939D939D0189939993FE
:100CA000DB018D939D93BD01BAE0EE30FB0771F738
:100CB00080E0DF91CF910895CF92DF92EF92FF9283
:100CC0000F931F93CF93DF93EC018B0128E130E06A
:100CD0008230910589F03CF427E130E0019761F022
:100CE00026E130E009C029E130E08330910521F0B0
:100CF0002AE130E00497A1F7F901EE58FA4F849108
:100D0000F901E45DFA4FE490F901EA51FB4FF490E8
:100D100030E020E0FF2099F081110E942D03EF2D9B
:100D2000F0E0EE0FFF1FE856FB4FA591B491EC9158
:100D3000EE2291E080E009F490E0292F382FCE01D7
:100D4000880F991FFC01E452F64F31832083FC0188
:100D5000E051F64F40815181CC0FDD1FCC0FDD1FDC
:100D60004217530791F02FB7F8944091760A5091AB
:100D7000770A6091780A7091790A2FBFFE01E650D8
:100D8000F64F40835183628373832FB7F894409169
:100D9000760A5091770A6091780A7091790A2FBF8C
:100DA000C650D64FC880D980EA80FB804C195D09B7
:100DB0006E097F09433351056105710578F0FC0127
:100DC000E452F64F20813181FC01EA51F64F408117
:100DD00051812417350711F031832083FC01E05144
:100DE000F64FDC01A452B64F2D913C913183208304
:100DF0008A51964F21E030E0FC0180819181892B5E
:100E000011F030E020E0F8013183208380E0DF91B1
:100E1000CF911F910F91FF90EF90DF90CF900895A9
:100E2000009729F0BC0184E090E00C945C0681E01E
:100E30000895009729F0BC0183E090E00C945C06D3
:100E400081E00895009729F0BC0182E090E00C94C5
:100E50005C0681E00895009729F0BC0181E090E0F4
:100E60000C945C0681E00895009729F0BC0190E0A5
:100E700080E00C945C0681E00895CF93DF93E091CD
:100E8000500A0E2E000CFF0BA4EBB9E030E020E07E
:100E90002E173F07ACF4CD91DD91988198130DC0CA
:100EA000660F770B29813A81620F731FDB01ED9189
:100EB000FC91CA01DF91CF9119942F5F3F4FE8CF8A
:100EC0008AE2DF91CF910895EF92FF920F931F93E3
:100ED000CF93DF931F921F92CDB7DEB77C018B01BA
:100EE00050E040E061E082E00E943D0719821A82F2
:100EF000AE014F5F5F4F63E082E00E943D07A701B4
:100F000062E082E00E943D07198281E08A83AE019F
:100F10004F5F5F4F63E082E00E943D07A80162E0FF
:100F200082E00E943D070F900F90DF91CF911F91BB
:100F30000F91FF90EF9008951F93CF93DF9310913F
:100F4000500A14315CF5C82F0C2E000CDD0BFE018D
:100F5000EE0FFF1FE75EFD4F0190F081E02D199528
:100F6000E12FEE0FFF0BEC54F64F91838083E0915D
:100F7000500AEE0FFF0BEC54F64F0190F081E02D7C
:100F80000380F481E02DCE0119959091500A9F5F66
:100F90009093500ADF91CF911F91089581E0FACF8D
:100FA000CF93DF93EC0160E08E810E94940361E0B7
:100FB0008E810E94940360E08E810E9494038BE8EE
:100FC00091E00197F1F7DF91CF910895CF92DF92F1
:100FD000EF92FF920F931F93CF93DF936C017C01ED
:100FE00087E0E80EF11CD0E0C0E0062F10E0B80169
:100FF0000C2E02C0759567950A94E2F76170F701AF
:1010000081917F010E9494032196C430D10579F724
:10101000C601DF91CF911F910F91FF90EF90DF906C
:10102000CF900C94D007CF92DF92EF92FF920F9364
:101030001F93CF93DF93EC01F62E642F8C810E94D7
:1010400094038D818F3F19F060E00E9494030F2D6F
:1010500010E08F8584FF25C06E0187E0C80ED11C8B
:10106000F12CE12CB8010E2C02C0759567950A94FD
:10107000E2F76170F60181916F010E949403FFEF26
:10108000EF1AFF0A88E0E816F10461F7CE01DF915C
:10109000CF911F910F91FF90EF90DF90CF900C9424
:1010A000D007B80184E0759567958A95E1F7CE0180
:1010B0000E94E6076F2DCE01DF91CF911F910F9116
:1010C000FF90EF90DF90CF900C94E60740E0682F00
:1010D0008AE29BE00C941308CF93DF93823029F4CB
:1010E0009091390B98609093390B80933D0B10923F
:1010F0003E0B80E480933F0B80E18093400B80E5C2
:101100008093410B61E080912E0B0E94C20380917D
:101110002F0B8F3F19F061E00E94C20361E08091C4
:10112000300B0E94C203CAE2DBE09E012A523B4020
:101130008091390B84FD0BC084E090E02196281744
:10114000390744F461E08E810E94C203EECF88E04B
:1011500090E0F4CF8BE39DE00197F1F760E08091A0
:101160002E0B0E94940360E08091300B0E94940348
:1011700080912F0B8F3F19F060E00E9494038091C3
:10118000390B84FD39C063E08AE29BE00E94E607E8
:10119000CBE4D6E4CE010197F1F763E08AE29BE06D
:1011A0000E94E6072197F1F763E08AE29BE00E9444
:1011B000E60783E592E00197F1F762E08AE29BE0BF
:1011C0000E94E6078091390B80620E94660884E0E5
:1011D00080933A0B8CE00E94660881E00E946608CA
:1011E0008BE39FE10197F1F782E080933B0B86E070
:1011F000DF91CF910C94660880620E9466088BE4B0
:1012000096E40197F1F78091390B80620E9466089D
:1012100083E592E00197F1F78091390B80620E949B
:101220006608D0CFCF93C82F80911D0A811106C0C8
:1012300082E00E946C0881E080931D0AC093260A18
:1012400080E0CF910895FC0180911D0A8823B9F0B8
:101250003097A9F09081E181E43008F0E3E08091DB
:101260003D0BE81710F0EFEFE80FF0E0E65DF44F0C
:101270008489890F80680E94660880E0089581E073
:10128000089580911D0A882349F081E00E94660834
:101290008BE39FE10197F1F780E0089581E00895E5
:1012A00041E00E94130881E090E00895CF93DF931E
:1012B000EC01DC016D937D93FB013197E732F10581
:1012C00008F035C48827E859F64F8F4F0C94512801
:1012D0008F09A109BE09DC09FE09160A320A4E0A65
:1012E0006E0A8A0AA60ABE0ACE0AEE0A0A0B220B68
:1012F000320B4A0B620B820BA80BC00BE00B000CED
:101300002A0C2D0C300C460C620C8A0CAA0CCA0C50
:10131000CD0CF50C110D310D4D0D710D870D61E6E4
:1013200072E0CD010E946D2882E090E09BAF8AAF11
:1013300083E190E09B8B8A8B80E190E09D8B8C8B8E
:1013400019C069E672E0CD010E946D2884E090E04A
:101350009BAF8AAF83E190E09B8B8A8B80E190E02A
:101360009D8B8C8B8AE090E09F8B8E8B8DE090E044
:10137000998F888FCE01DF91CF91089561E772E058
:10138000CD010E946D2885E090E09BAF8AAF8AE096
:1013900090E09B8B8A8B8DE090E09D8B8C8B8BE01B
:1013A00090E09F8B8E8B8EE090E0998F888F89E103
:1013B00090E09B8F8A8FDECF6CE772E0CD010E94B8
:1013C0006D2886E090E09BAF8AAF80E190E09B8B38
:1013D0008A8B88E390E09D8B8C8B87E290E09F8BDB
:1013E0008E8B85E190E0998F888F8DE190E09B8FC7
:1013F0008A8F80E290E09D8F8C8FBCCF64E872E092
:10140000CD010E946D2884E090E09BAF8AAF89E215
:1014100090E09B8B8A8B8AE490E09D8B8C8B83E29F
:1014200090E09F8B8E8B8EE290E0A2CF6DE872E011
:10143000CD010E946D2885E090E09BAF8AAF83E1EB
:1014400090E09B8B8A8B85E190E09D8B8C8B87E174
:1014500090E09F8B8E8B8BE190E0998F888F88E353
:1014600090E0A7CF65E972E0CD010E946D2885E08C
:1014700090E09BAF8AAF8FE390E09B8B8A8B85E4F3
:1014800090E09D8B8C8B8BE290E09F8B8E8B80E12C
:1014900090E0998F888F80E390E08BCF6EE972E0C7
:1014A000CD010E946D2886E090E09BAF8AAF8FE36C
:1014B00090E09B8B8A8B85E490E09D8B8C8B8BE2FC
:1014C00090E09F8B8E8B80E190E0998F888F80E3F6
:1014D00090E09B8F8A8F86E390E08DCF67EA72E081
:1014E000CD010E946D2885E090E09BAF8AAF80E13E
:1014F00090E09B8B8A8B84E390E09D8B8C8B8BE2BE
:1015000090E09F8B8E8B85E490E0998F888F8FE39E
:1015100090E04FCF6FEA72E0CD010E946D2886E027
:1015200090E09BAF8AAF80E190E09B8B8A8B84E355
:1015300090E09D8B8C8B8BE290E09F8B8E8B85E473
:1015400090E0998F888F8FE390E0C3CF67EB72E0D4
:10155000CD010E946D2884E090E09BAF8AAF80E6C9
:1015600090E09B8B8A8B81E690E09D8B8C8B81E554
:1015700090E09F8B8E8B84E690E0FACE60EC72E078
:10158000CD010E946D2882E090E09BAF8AAF82E39C
:1015900090E09B8B8A8B83E390E0D0CE6DEC72E081
:1015A000CD010E946D2886E090E09BAF8AAF80E17C
:1015B00090E09B8B8A8B84E390E09D8B8C8B85E203
:1015C00090E09F8B8E8B8BE290E0998F888F85E4E3
:1015D00090E09B8F8A8F8AE390E00DCF65ED72E0FB
:1015E000CD010E946D2886E090E09BAF8AAF80E13C
:1015F00090E09B8B8A8B84E390E09D8B8C8B87E1C2
:1016000090E09F8B8E8B8BE190E0998F888F85E2A5
:1016100090E0DFCF6DED72E0CD010E946D2884E097
:1016200090E09BAF8AAF83E190E09B8B8A8B85E152
:1016300090E09D8B8C8B87E190E09F8B8E8B8BE174
:1016400090E096CE65EE72E0CD010E946D2882E0BA
:1016500090E09BAF8AAF84E690E09B8B8A8B81E51C
:1016600090E06CCE6EEE72E0CD010E946D2884E0B9
:1016700090E09BAF8AAF89E290E09B8B8A8B8AE2F5
:1016800090E09D8B8C8B82E490E09F8B8E8B8AE424
:1016900090E06ECE6AEF72E0CD010E946D2884E08A
:1016A00090E09BAF8AAF8CE590E09B8B8A8B8DE5B9
:1016B00090E09D8B8C8B89E290E09F8B8E8B8AE2F1
:1016C00090E056CE65E073E0CD010E946D2886E083
:1016D00090E09BAF8AAF84E690E09B8B8A8B85E697
:1016E00090E09D8B8C8B81E590E09F8B8E8B82E5CB
:1016F00090E0998F888F80E490E09B8F8A8F81E4BF
:1017000090E079CE6FE073E0CD010E946D2887E014
:1017100090E09BAF8AAF82E490E09B8B8A8B83E45E
:1017200090E09D8B8C8B84E490E09F8B8E8B88E384
:1017300090E0998F888F89E390E09B8F8A8F8AE66B
:1017400090E09D8F8C8F8BE690E09F8F8E8F12CED6
:101750006AE173E0CD010E946D2884E090E09BAFC8
:101760008AAF84E690E09B8B8A8B85E690E09D8B28
:101770008C8B81E590E09F8B8E8B82E590E0F8CD9D
:1017800066E273E0CD010E946D2886E090E09BAF99
:101790008AAF88E590E09B8B8A8B89E590E09D8BF2
:1017A0008C8B8DE690E09F8B8E8B8EE690E0998FF0
:1017B000888F87E190E09B8F8A8F88E190E01BCE35
:1017C00062E373E0CD010E946D2886E090E09BAF5C
:1017D0008AAF8BE290E09B8B8A8B8CE290E09D8BB2
:1017E0008C8B80E390E09F8B8E8B85E490E0998FCB
:1017F000888F86E490E09B8F8A8F83E590E0FBCD15
:101800006BE373E0CD010E946D2888E090E09BAF10
:101810008AAF80E190E09B8B8A8B81E190E09D8B89
:101820008C8B8BE290E09F8B8E8B8CE290E0998F7B
:10183000888F80E390E09B8F8A8F85E490E09D8F76
:101840008C8F86E490E09F8F8E8F84E890E099A340
:1018500088A390CD64E473E0D5CF6DE473E0D2CF7C
:1018600066E573E0CD010E946D2882E190E09BAFB8
:101870008AAFEFE1F2E0DE015296819191918D9372
:101880009D9382E0E334F807C1F774CD62E673E01C
:10189000CD010E946D2885E090E09BAF8AAF83E187
:1018A00090E09B8B8A8B84E190E09D8B8C8B85E113
:1018B00090E09F8B8E8B86E190E0998F888F84E5F6
:1018C00090E077CD6BE673E0CD010E946D2888E053
:1018D00090E09BAF8AAF80E190E09B8B8A8B81E1A7
:1018E00090E09D8B8C8B83E190E09F8B8E8B84E1CD
:1018F00090E0998F888F85E190E09B8F8A8F86E1B9
:1019000090E09D8F8C8F84E590E09F8F8E8F85E592
:1019100090E09DCF64E773E0CD010E946D2886E0E2
:1019200090E09BAF8AAF83E190E09B8B8A8B84E150
:1019300090E09D8B8C8B85E190E09F8B8E8B86E178
:1019400090E0998F888F84E590E09B8F8A8F85E562
:1019500090E051CD6DE773E0CD010E946D2886E0E7
:1019600090E09BAF8AAF88E490E09B8B8A8B89E400
:1019700090E09D8B8C8B8AE590E09F8B8E8B88E727
:1019800090E0998F888F81E890E09B8F8A8F82E822
:1019900090E031CD66E873E0DFCF6FE873E0CD0112
:1019A0000E946D2888E090E09BAF8AAF88E490E0C9
:1019B0009B8B8A8B89E490E09D8B8C8B86E590E0F5
:1019C0009F8B8E8B87E590E0998F888F8AE590E0DA
:1019D0009B8F8A8F8BE590E09D8F8C8F81E890E0C4
:1019E0009F8F8E8F82E890E032CF6AE973E0CD015D
:1019F0000E946D2885E090E09BAF8AAF80E190E087
:101A00009B8B8A8B81E190E09D8B8C8B83E190E0B6
:101A10009F8B8E8B84E190E0998F888F82E790E096
:101A2000C8CC63EA73E0CD010E946D2886E090E0A7
:101A30009BAF8AAF88E590E09B8B8A8B89E590E02D
:101A40009D8B8C8B8DE690E09F8B8E8B8EE690E04D
:101A5000998F888F8AE390E09B8F8A8F8BE390E049
:101A6000CACC60EB73E0CD010E946D2885E090E068
:101A70009BAF8AAF83E190E09B8B8A8B85E190E0FE
:101A80009D8B8C8B88E390E09F8B8E8B8DE190E01B
:101A9000998F888F80E290E08CCC69EB73E0CD0168
:101AA0000E946D2887E090E09BAF8AAF86E190E0CE
:101AB0009B8B8A8B85E190E09D8B8C8B87E190E0FE
:101AC0009F8B8E8B88E190E0998F888F8BE190E0DF
:101AD0009B8F8A8F8CE190E09D8F8C8F85E990E0C1
:101AE00034CE62EC73E0CD010E946D2883E090E07B
:101AF0009BAF8AAF80E990E09B8B8A8B81E990E075
:101B00009D8B8C8B82E990E09F8B8E8B33CC6DEC20
:101B100073E0CD010E946D2882E090E09BAF8AAF18
:101B200086E990E09B8B8A8B87E990E007CC68ED93
:101B300073E0CD010E946D281BAE1AAE1BCCCF9274
:101B4000DF92EF92FF920F931F93CF93DF93CDB766
:101B5000DEB7EC970FB6F894DEBF0FBECDBFBC0169
:101B6000CE0101960E945609EBACFCAC80E0E1147A
:101B7000F104A9F06E0183E1C80ED11C10E000E071
:101B80000E151F055CF4F601819191916F010E9481
:101B90001003882321F00F5F1F4FF2CF81E0EC96F6
:101BA0000FB6F894DEBF0FBECDBFDF91CF911F916E
:101BB0000F91FF90EF90DF90CF900895CF92DF923A
:101BC000EF92FF920F931F93CF93DF93EC0102E309
:101BD00010E0198B088B1B8B0A8B84E0C82ED12C4C
:101BE000DD8ACC8A97E0E92EF12CFF8AEE8A198EE5
:101BF000188EFB013197E739F10510F00C94C61CE3
:101C00008827EA5FF14F8F4F0C9451289D0EBE0E2E
:101C1000D60EEE0E060F1E0F360F4E0F660F7E0FFE
:101C2000960FAC0FC40FDC0FF20F0A1022103A10FF
:101C3000521068107E109610AE10C610DE10F6100E
:101C40000E1126113E1154116C1184119C11B21108
:101C5000CA11E011F6110E1226123C1252126A122B
:101C600082129A12B212CA12E012F8120E1326133E
:101C70003C13521368137E139613AE13C613DE1370
:101C8000F6130E1424143C1454146C1484149A1473
:101C9000B214CA14E214FA1412152A1542155A1570
:101CA00072158A15A215BA15D215E8150016181660
:101CB000301646165C1674168C16A216BB16D41671
:101CC000ED1606171F1736174F17681781179A1743
:101CD000B317CC17E317FA1713182C1845185E180A
:101CE00075188C18A318BC18D518EE1807191E19EA
:101CF00037194E19671980199919B219CB19E419B6
:101D0000FD19161A2F1A481A611A7A1A911AAA1A64
:101D1000C31ADC1AF31A0A1B231B3C1B551B6C1B32
:101D2000851B9E1BB71BD01BE91B001C191C321CFA
:101D30004B1C641C7D1C961CAF1C61E979E0CE0134
:101D40000E946D288DE290E0998B888B9B8B8A8B0B
:101D500084E090E09D8B8C8B87E090E09F8B8E8B56
:101D600081E090E0998F888FCE01DF91CF911F9114
:101D70000F91FF90EF90DF90CF90089560EE73E0A9
:101D8000CE010E946D288CE390E0998B888B9B8B11
:101D90008A8B86E090E09D8B8C8B89E090E09F8B16
:101DA0008E8B81E090E0998F888FDECF68EE73E0B4
:101DB000CE010E946D2880E590E0998B888B9B8BEB
:101DC0008A8B88E090E09D8B8C8B8CE090E09F8BE1
:101DD0008E8B81E090E0998F888FC6CF6DE979E096
:101DE000CE010E946D2887E290E0998B888B9B8BB7
:101DF0008A8B85E090E09D8B8C8B88E090E09F8BB8
:101E00008E8B82E090E0998F888FAECF61EF73E088
:101E1000CE010E946D288AE390E0998B888B9B8B82
:101E20008A8B87E090E09D8B8C8B8BE090E09F8B82
:101E30008E8B82E090E0998F888F96CF6CEF73E065
:101E4000CE010E946D288EE490E0998B888B9B8B4D
:101E50008A8B89E090E09D8B8C8B8EE090E09F8B4D
:101E60008E8B82E090E0998F888F7ECF6AEA79E04E
:101E7000CE010E946D288CE290E0998B888B9B8B21
:101E80008A8B84E090E09D8B8C8B86E090E09F8B2A
:101E90008E8B83E090E0998F888F66CF66E074E048
:101EA000CE010E946D288BE390E0998B888B9B8BF1
:101EB0008A8B86E090E09D8B8C8B89E090E09F8BF5
:101EC0008E8B83E090E0998F888F4ECF60E174E035
:101ED000CE010E946D288FE490E0998B888B9B8BBC
:101EE0008A8B88E090E09D8B8C8B8DE090E09F8BBF
:101EF0008E8B83E090E0998F888F36CF6AE174E013
:101F0000CE010E946D288DE290E0998B888B9B8B8F
:101F10008A8B82E090E09D8B8C8B85E090E09F8B9C
:101F20008E8B84E090E0998F888F1ECF63E274E0FF
:101F3000CE010E946D2882E390E0998B888B9B8B69
:101F40008A8B82E090E09D8B8C8B84E090E09F8B6D
:101F50008E8B998F888F08CF6BE274E0CE010E9440
:101F60006D288CE390E0998B888B9B8B8A8B86E025
:101F700090E09D8B8C8B8AE090E09F8B8E8B84E031
:101F800090E0998F888FF0CE66E374E0CE010E94D6
:101F90006D2888E290E0998B888B9B8B8A8B82E0FE
:101FA00090E09D8B8C8B85E090E09F8B8E8B84E006
:101FB00090E0998F888FD8CE6DE374E0CE010E94B7
:101FC0006D288DE290E0998B888B9B8B8A8B82E0C9
:101FD00090E09D8B8C8B84E090E09F8B8E8B998F13
:101FE000888FC2CE64E474E0CE010E946D2881E443
:101FF00090E0998B888B9B8B8A8B87E090E09D8B00
:102000008C8B8BE090E09F8B8E8B84E090E0998F9F
:10201000888FAACE6DE474E0CE010E946D2888E21C
:1020200090E0998B888B9B8B8A8B83E090E09D8BD3
:102030008C8B86E090E09F8B8E8B85E090E0998F73
:10204000888F92CE64E574E0CE010E946D288FE304
:1020500090E0998B888B9B8B8A8B86E090E09D8BA0
:102060008C8B89E090E09F8B8E8B85E090E0998F40
:10207000888F7ACE6EE574E0CE010E946D2883E5EC
:1020800090E0998B888B9B8B8A8B88E090E09D8B6E
:102090008C8B8DE090E09F8B8E8B85E090E0998F0C
:1020A000888F62CE66E674E0CE010E946D288EE1D4
:1020B00090E0998B888B9B8B8A8B83E090E09D8B43
:1020C0008C8B86E090E09F8B8E8B198E188E4CCE79
:1020D0006EE674E0CE010E946D2887E390E0998B54
:1020E000888B9B8B8A8B85E090E09D8B8C8B88E026
:1020F00090E09F8B8E8B198E188E36CE67E774E03A
:10210000CE010E946D2888E290E0998B888B9B8B92
:102110008A8B84E090E09D8B8C8B87E090E09F8B96
:102120008E8B85E090E0998F888F1ECE6FE774E0EC
:10213000CE010E946D2881E490E0998B888B9B8B67
:102140008A8B87E090E09D8B8C8B8BE090E09F8B5F
:102150008E8B85E090E0998F888F06CE66E874E0DC
:10216000CE010E946D2883E290E0998B888B9B8B37
:102170008A8B84E090E09D8B8C8B87E090E09F8B36
:102180008E8B86E090E0998F888FEECD6CE874E0BE
:10219000CE010E946D288CE390E0998B888B9B8BFD
:1021A0008A8B87E090E09D8B8C8B8BE090E09F8BFF
:1021B0008E8B86E090E0998F888FD6CD62E974E0AF
:1021C000CE010E946D2883E290E0998B888B9B8BD7
:1021D0008A8B85E090E09D8B8C8B88E090E09F8BD4
:1021E0008E8B87E090E0998F888FBECD6AE974E08E
:1021F000CE010E946D288CE390E0998B888B9B8B9D
:102200008A8B88E090E09D8B8C8B8CE090E09F8B9C
:102210008E8B87E090E0998F888FA6CD61EA74E07D
:10222000CE010E946D2882E390E0998B888B9B8B76
:102230008A8B84E090E09D8B8C8B87E090E09F8B75
:102240008E8B88E090E0998F888F8ECD6BEA74E05A
:10225000CE010E946D288BE490E0998B888B9B8B3C
:102260008A8B87E090E09D8B8C8B8BE090E09F8B3E
:102270008E8B88E090E0998F888F76CD65EB74E047
:10228000CE010E946D2887E390E0998B888B9B8B11
:102290008A8B83E090E09D8B8C8B86E090E09F8B17
:1022A0008E8B998F888F60CD6EEB74E0CE010E948B
:1022B0006D2886E490E0998B888B9B8B8A8B85E0D8
:1022C00090E09D8B8C8B88E090E09F8B8E8B86E0DE
:1022D00090E0998F888F48CD67EC74E0CE010E9422
:1022E0006D288AE590E0998B888B9B8B8A8B88E0A0
:1022F00090E09D8B8C8B8DE090E09F8B8E8B86E0A9
:1023000090E0998F888F30CD61ED74E0CE010E940E
:102310006D288EE290E0998B888B9B8B8A8B84E072
:1023200090E09D8B8C8B87E090E09F8B8E8B86E07E
:1023300090E0998F888F18CD6AED74E0CE010E94ED
:102340006D288DE390E0998B888B9B8B8A8B86E040
:1023500090E09D8B8C8B29E030E03F8B2E8B998F0A
:10236000888F02CD63EE74E0CE010E946D2881E576
:1023700090E0998B888B9B8B8A8B89E090E09D8B7A
:102380008C8B8EE090E09F8B8E8B86E090E0998F17
:10239000888FEACC6CEE74E0CE010E946D2886E452
:1023A00090E0998B888B9B8B8A8B84E090E09D8B4F
:1023B0008C8B87E090E09F8B8E8B198E188ED4CCFF
:1023C00065EF74E0CE010E946D288FE590E0998B57
:1023D000888B9B8B8A8B87E090E09D8B8C8B8BE02E
:1023E00090E09F8B8E8B198E188EBECC6EEF74E0B2
:1023F000CE010E946D2886E290E0998B888B9B8BA2
:102400008A8B84E090E09D8B8C8B87E090E09F8BA3
:102410008E8B82E090E0998F888FA6CC65E075E086
:10242000CE010E946D2889E490E0998B888B9B8B6C
:102430008A8B88E090E09D8B8C8B8CE090E09F8B6A
:102440008E8B82E090E0998F888F8ECC6FE075E064
:10245000CE010E946D2883E790E0998B888B9B8B3F
:102460008A8B83E090E09D8B8C8B86E090E09F8B45
:102470008E8B198E188E78CC6AE175E0CE010E94A1
:102480006D288CE890E0998B888B9B8B8A8B86E0FB
:1024900090E09D8B8C8B8AE090E09F8B8E8B198EC9
:1024A000188E62CC65E275E0CE010E946D2888E24C
:1024B00090E0998B888B9B8B8A8B83E090E09D8B3F
:1024C0008C8B86E090E09F8B8E8B85E090E0998FDF
:1024D000888F4ACC6BE275E0CE010E946D288BE4B8
:1024E00090E0998B888B9B8B8A8B86E090E09D8B0C
:1024F0008C8B8AE090E09F8B8E8B85E090E0998FAB
:10250000888F32CC62E375E0CE010E946D288DE2A7
:1025100090E0998B888B9B8B8A8B83E090E09D8BDE
:102520008C8B86E090E09F8B8E8B81E090E0998F82
:10253000888F1ACC69E375E0CE010E946D288CE388
:1025400090E0998B888B9B8B8A8B85E090E09D8BAC
:102550008C8B88E090E09F8B8E8B81E090E0998F50
:10256000888F02CC6FE375E0CE010E946D288BE46A
:1025700090E0998B888B9B8B8A8B88E090E09D8B79
:102580008C8B8CE090E09F8B8E8B81E090E0998F1C
:10259000888FEACB69E475E0CE010E946D2883E262
:1025A00090E0998B888B9B8B8A8B84E090E09D8B4D
:1025B0008C8B27E030E03F8B2E8B998F888FD4CB8C
:1025C0006FE475E0CE010E946D288CE390E0998B5A
:1025D000888B9B8B8A8B87E090E09D8B8C8B8BE02C
:1025E00090E09F8B8E8B84E090E0998F888FBCCB9E
:1025F00068E575E0CE010E946D288CE390E0998B30
:10260000888B9B8B8A8B84E090E09D8B8C8B27E062
:1026100030E03F8B2E8B998F888FA6CB60E675E0DC
:10262000CE010E946D2886E490E0998B888B9B8B6D
:102630008A8B87E090E09D8B8C8B8BE090E09F8B6A
:102640008E8B84E090E0998F888F8ECB69E675E061
:10265000CE010E946D288EE190E0998B888B9B8B38
:102660008A8B85E090E09D8B8C8B88E090E09F8B3F
:102670008E8B998F888F78CB61E775E0CE010E94B1
:102680006D2887E390E0998B888B9B8B8A8B88E001
:1026900090E09D8B8C8B2CE030E03F8B2E8B998FC4
:1026A000888F62CB69E775E0CE010E946D2888E2D1
:1026B00090E0998B888B9B8B8A8B84E090E09D8B3C
:1026C0008C8B87E090E09F8B8E8B198E188E4CCB75
:1026D00060E875E0CE010E946D2881E490E0998B5E
:1026E000888B9B8B8A8B87E090E09D8B8C8B8BE01B
:1026F00090E09F8B8E8B198E188E36CB68E875E034
:10270000CE010E946D2882E390E0998B888B9B8B91
:102710008A8B84E090E09D8B8C8B87E090E09F8B90
:102720008E8B83E090E0998F888F1ECB60E975E0F7
:10273000CE010E946D2880E590E0998B888B9B8B61
:102740008A8B87E090E09D8B8C8B8BE090E09F8B59
:102750008E8B83E090E0998F888F06CB68E975E0D7
:10276000CE010E946D2888E290E0998B888B9B8B2C
:102770008A8B84E090E09D8B8C8B87E090E09F8B30
:102780008E8B89E090E0998F888FEECA6FE975E0B3
:10279000CE010E946D2881E490E0998B888B9B8B01
:1027A0008A8B88E090E09D8B8C8B8CE090E09F8BF7
:1027B0008E8B89E090E0998F888FD6CA68EA75E0A1
:1027C000CE010E946D2887E390E0998B888B9B8BCC
:1027D0008A8B85E090E09D8B8C8B88E090E09F8BCE
:1027E0008E8B82E090E0998F888FBECA62EB75E095
:1027F000CE010E946D288AE590E0998B888B9B8B97
:102800008A8B89E090E09D8B8C8B8EE090E09F8B93
:102810008E8B82E090E0998F888FA6CA6BEB75E073
:10282000CE010E946D2888E290E0998B888B9B8B6B
:102830008A8B83E090E09D8B8C8B26E030E03F8B91
:102840002E8B998F888F90CA63EC75E0CE010E9421
:102850006D2881E490E0998B888B9B8B8A8B86E036
:1028600090E09D8B8C8B89E090E09F8B8E8B83E03A
:1028700090E0998F888F78CA6DEC75E0CE010E9448
:102880006D288AE590E0998B888B9B8B8A8B89E0F9
:1028900090E09D8B8C8B8EE090E09F8B8E8B83E005
:1028A00090E0998F888F60CA6AED75E0CE010E9432
:1028B0006D2889E190E0998B888B9B8B8A8B86E0D1
:1028C00090E09D8B8C8B89E090E09F8B8E8B8AE0D3
:1028D00090E0998F888F48CA67ED75E0CE010E941D
:1028E0006D2888E290E0998B888B9B8B8A8B88E09F
:1028F00090E09D8B8C8B8CE090E09F8B8E8B8AE0A0
:1029000090E0998F888F30CA6FED75E0CE010E94FC
:102910006D2887E390E0998B888B9B8B8A8B8AE06C
:1029200090E09D8B8C8B2FE030E03F8B2E8B998F2E
:10293000888F1ACA68EE75E0CE010E946D2886E481
:1029400090E0998B888B9B8B8A8B85E090E09D8BA8
:102950008C8B88E090E09F8B8E8B89E090E0998F44
:10296000888F02CA6FEE75E0CE010E946D2880E567
:1029700090E0998B888B9B8B8A8B87E090E09D8B76
:102980008C8B8BE090E09F8B8E8B89E090E0998F11
:10299000888FEAC967EF75E0CE010E946D288AE54D
:1029A00090E0998B888B9B8B8A8B8AE090E09D8B43
:1029B0008C8B8FE090E09F8B8E8B89E090E0998FDD
:1029C000888FD2C96FEF75E0CE010E946D2882E337
:1029D00090E0998B888B9B8B8A8B84E090E09D8B19
:1029E0008C8B87E090E09F8B8E8B81E090E0998FBD
:1029F000888FBAC96AE076E0CE010E946D2881E432
:102A000090E0998B888B9B8B8A8B86E090E09D8BE6
:102A10008C8B89E090E09F8B8E8B81E090E0998F8A
:102A2000888FA2C965E176E0CE010E946D2880E51D
:102A300090E0998B888B9B8B8A8B89E090E09D8BB3
:102A40008C8B8EE090E09F8B8E8B81E090E0998F55
:102A5000888F8AC960E276E0CE010E946D2888E204
:102A600090E0998B888B9B8B8A8B84E090E09D8B88
:102A70008C8B87E090E09F8B8E8B83E090E0998F2A
:102A8000888F72C96AE276E0CE010E946D2880E5E7
:102A900090E0998B888B9B8B8A8B88E090E09D8B54
:102AA0008C8B8CE090E09F8B8E8B83E090E0998FF5
:102AB000888F5AC965E376E0CE010E946D2888E2CE
:102AC00090E0998B888B9B8B8A8B85E090E09D8B27
:102AD0008C8B88E090E09F8B8E8B8DE090E0998FBF
:102AE000888F42C96DE376E0CE010E946D2887E3AE
:102AF00090E0998B888B9B8B8A8B87E090E09D8BF5
:102B00008C8B8BE090E09F8B8E8B8DE090E0998F8B
:102B1000888F2AC966E476E0CE010E946D2880E5A0
:102B200090E0998B888B9B8B8A8B89E090E09D8BC2
:102B30008C8B8EE090E09F8B8E8B8DE090E0998F58
:102B4000888F12C96CE476E0CE010E946D2882E382
:102B500090E0998B888B9B8B8A8B85E090E09D8B96
:102B60008C8B88E090E09F8B8E8B82E090E0998F39
:102B7000888FFAC863E576E0CE010E946D2881E473
:102B800090E0998B888B9B8B8A8B88E090E09D8B63
:102B90008C8B8CE090E09F8B8E8B82E090E0998F05
:102BA000888FE2C86CE576E0CE010E946D288AE548
:102BB00090E0998B888B9B8B8A8B83E090E09D8B38
:102BC0008C8B26E030E03F8B2E8B998F888FCCC882
:102BD00065E676E0CE010E946D288FE590E0998B46
:102BE000888B9B8B8A8B86E090E09D8B8C8B8AE018
:102BF00090E09F8B8E8B83E090E0998F888FB4C894
:102C00006DE676E0CE010E946D2889E190E0998B17
:102C1000888B9B8B8A8B85E090E09D8B8C8B88E0EA
:102C200090E09F8B8E8B87E090E0998F888F9CC877
:102C300067E776E0CE010E946D2882E390E0998BF1
:102C4000888B9B8B8A8B88E090E09D8B8C8B8CE0B3
:102C500090E09F8B8E8B87E090E0998F888F84C85F
:102C600060E876E0CE010E946D2884E390E0998BC5
:102C7000888B9B8B8A8B85E090E09D8B8C8B28E0EA
:102C800030E03F8B2E8B998F888F6EC86AE876E094
:102C9000CE010E946D2883E290E0998B888B9B8BFC
:102CA0008A8B85E090E09D8B8C8B28E030E03F8B19
:102CB0002E8B998F888F58C860E976E0CE010E94EC
:102CC0006D288CE390E0998B888B9B8B8A8B88E0B6
:102CD00090E09D8B8C8B8CE090E09F8B8E8B85E0C1
:102CE00090E0998F888F40C867E976E0CE010E9416
:102CF0006D2881E490E0998B888B9B8B8A8B84E094
:102D000090E09D8B8C8B87E090E09F8B8E8B8BE08F
:102D100090E0998F888F28C86CE976E0CE010E94F8
:102D20006D288AE590E0998B888B9B8B8A8B87E056
:102D300090E09D8B8C8B8BE090E09F8B8E8B998F9E
:102D4000888F12C864EA76E0CE010E946D2880E583
:102D500090E0998B888B9B8B8A8B84E090E09D8B95
:102D60008C8B87E090E09F8B8E8B86E090E0998F34
:102D7000888F0C94B40E6BEA76E0CE010E946D2829
:102D800089E690E0998B888B9B8B8A8B87E090E01B
:102D90009D8B8C8B8BE090E09F8B8E8B86E090E000
:102DA000998F888F0C94B40E6FEA76E0CE010E9462
:102DB0006D288EE190E0998B888B9B8B8A8B85E0C8
:102DC00090E09D8B8C8B88E090E09F8B8E8B83E0D6
:102DD00090E0998F888F0C94B40E68EB76E0CE016A
:102DE0000E946D2882E390E0998B888B9B8B8A8B65
:102DF00089E090E09D8B8C8B8EE090E09F8B8E8B9A
:102E00008BE090E0998F888F0C94B40E61EC76E0A3
:102E1000CE010E946D288EE190E0998B888B9B8B70
:102E20008A8B86E090E09D8B8C8B89E090E09F8B75
:102E30008E8B8CE090E0998F888F0C94B40E68ECA8
:102E400076E0CE010E946D288DE290E0998B888B10
:102E50009B8B8A8B88E090E09D8B8C8B8CE090E044
:102E60009F8B8E8B998F888F0C94B40E60ED76E0DB
:102E7000CE010E946D288CE390E0998B888B9B8B10
:102E80008A8B8AE090E09D8B8C8B8FE090E09F8B0B
:102E90008E8B8CE090E0998F888F0C94B40E67ED48
:102EA00076E0CE010E946D2883E290E0998B888BBA
:102EB0009B8B8A8B86E090E09D8B8C8B89E090E0E9
:102EC0009F8B8E8B8DE090E0998F888F0C94B40E41
:102ED0006CED76E0CE010E946D288CE390E0998B3A
:102EE000888B9B8B8A8B84E090E09D8B8C8B87E01A
:102EF00090E09F8B8E8B8AE090E0998F888F0C9466
:102F0000B40E64EE76E0CE010E946D2885E590E077
:102F1000998B888B9B8B8A8B87E090E09D8B8C8B29
:102F20008BE090E09F8B8E8B8AE090E0998F888F6A
:102F30000C94B40E6AEE76E0CE010E946D288EE10C
:102F400090E0998B888B9B8B8A8B85E090E09D8BA2
:102F50008C8B88E090E09F8B8E8B83E090E0998F44
:102F6000888F0C94B40E61EF76E0CE010E946D283C
:102F700087E390E0998B888B9B8B8A8B89E090E02C
:102F80009D8B8C8B8EE090E09F8B8E8B83E090E00E
:102F9000998F888F0C94B40E69EF76E0CE010E9471
:102FA0006D2888E290E0998B888B9B8B8A8B84E0DC
:102FB00090E09D8B8C8B87E090E09F8B8E8B998F20
:102FC000888F0C94B40E61E077E0CE010E946D28EA
:102FD0008CE390E0998B888B9B8B8A8B87E090E0C9
:102FE0009D8B8C8B2BE030E03F8B2E8B998F888FC5
:102FF0000C94B40E6BE077E0CE010E946D288CE358
:1030000090E0998B888B9B8B8A8B84E090E09D8BE2
:103010008C8B87E090E09F8B8E8B81E090E0998F86
:10302000888F0C94B40E65E177E0CE010E946D2884
:103030008FE590E0998B888B9B8B8A8B89E090E061
:103040009D8B8C8B8EE090E09F8B8E8B81E090E04F
:10305000998F888F0C94B40E6FE177E0CE010E94B7
:103060006D2882E390E0998B888B9B8B8A8B84E020
:1030700090E09D8B8C8B87E090E09F8B8E8B88E01F
:1030800090E0998F888F0C94B40E66E277E0CE01C1
:103090000E946D288CE390E0998B888B9B8B8A8BA8
:1030A00087E090E09D8B8C8B8BE090E09F8B8E8BEC
:1030B00088E090E0998F888F0C94B40E6EE277E0F0
:1030C000CE010E946D2882E390E0998B888B9B8BC8
:1030D0008A8B89E090E09D8B8C8B2EE030E03F8BDB
:1030E0002E8B998F888F0C94B40E68E377E0CE0115
:1030F0000E946D2882E390E0998B888B9B8B8A8B52
:1031000089E090E09D8B8C8B2EE030E03F8B2E8B06
:10311000998F888F0C94B40E63E477E0CE010E94FF
:103120006D288AE590E0998B888B9B8B8A8B84E055
:1031300090E09D8B8C8B87E090E09F8B8E8B198E1F
:10314000188E0C94B40E6DE477E0CE010E946D28C9
:1031500088E290E0998B888B9B8B8A8B85E090E04E
:103160009D8B8C8B88E090E09F8B8E8B86E090E02F
:10317000998F888F0C94B40E65E577E0CE010E949C
:103180006D2881E490E0998B888B9B8B8A8B88E0FB
:1031900090E09D8B8C8B8CE090E09F8B8E8B86E0FB
:1031A00090E0998F888F0C94B40E6DE577E0CE0196
:1031B0000E946D2880E590E0998B888B9B8B8A8B91
:1031C00085E090E09D8B8C8B88E090E09F8B8E8BD0
:1031D0008DE090E0998F888F0C94B40E65E677E0CF
:1031E000CE010E946D2889E690E0998B888B9B8B9D
:1031F0008A8B89E090E09D8B8C8B8EE090E09F8B9A
:103200008E8B8DE090E0998F888F0C94B40E6CE6D5
:1032100077E0CE010E946D288AEF90E0998B888B31
:103220009B8B8A8B83E090E09D8B8C8B86E090E07B
:103230009F8B8E8B198E188E0C94B40E64E777E0FA
:10324000CE010E946D2881E490E0998B888B9B8B46
:103250008A8B84E090E09D8B8C8B87E090E09F8B45
:103260008E8B81E090E0998F888F0C94B40E6CE780
:1032700077E0CE010E946D2889E690E0998B888BDB
:103280009B8B8A8B88E090E09D8B8C8B8DE090E00F
:103290009F8B8E8B198E188E0C94B40E67E877E096
:1032A000CE010E946D288EE190E0998B888B9B8BDC
:1032B0008A8B84E090E09D8B8C8B87E090E09F8BE5
:1032C0008E8B83E090E0998F888F0C94B40E6EE81B
:1032D00077E0CE010E946D2887E390E0998B888B80
:1032E0009B8B8A8B87E090E09D8B8C8B8BE090E0B2
:1032F0009F8B8E8B83E090E0998F888F0C94B40E17
:1033000065E977E0CE010E946D288DE290E0998B0F
:10331000888B9B8B8A8B84E090E09D8B8C8B87E0E5
:1033200090E09F8B8E8B83E090E0998F888F0C9438
:10333000B40E6DE977E0CE010E946D2880E590E043
:10334000998B888B9B8B8A8B87E090E09D8B8C8BF5
:103350008BE090E09F8B8E8B83E090E0998F888F3D
:103360000C94B40E65EA77E0CE010E946D288EE1E0
:1033700090E0998B888B9B8B8A8B85E090E09D8B6E
:103380008C8B88E090E09F8B8E8B83E090E0998F10
:10339000888F0C94B40E6CEA77E0CE010E946D2801
:1033A0008CE390E0998B888B9B8B8A8B89E090E0F3
:1033B0009D8B8C8B8EE090E09F8B8E8B83E090E0DA
:1033C000998F888F0C94B40E64EB77E0CE010E9445
:1033D0006D2888E290E0998B888B9B8B8A8B87E0A5
:1033E00090E09D8B8C8B8BE090E09F8B8E8B8AE0A6
:1033F00090E0998F888F0C94B40E6BEB77E0CE0140
:103400000E946D2886E490E0998B888B9B8B8A8B39
:1034100088E090E09D8B8C8B8DE090E09F8B8E8B75
:1034200084E090E0998F888F0C94B40E63EC77E081
:10343000CE010E946D2881E490E0998B888B9B8B54
:103440008A8B88E090E09D8B8C8B8CE090E09F8B4A
:103450008E8B8BE090E0998F888F0C94B40E68EC83
:1034600077E0CE010E946D2881E490E0998B888BF3
:103470009B8B8A8B88E090E09D8B8C8B8CE090E01E
:103480009F8B8E8B87E090E0998F888F0C94B40E81
:1034900063ED77E0CE010E946D2881E490E0998B86
:1034A000888B9B8B8A8B88E090E09D8B8C8B8CE04B
:1034B00090E09F8B8E8B82E090E0998F888F0C94A8
:1034C000B40E6AED77E0CE010E946D2881E490E0B1
:1034D000998B888B9B8B8A8B89E090E09D8B8C8B62
:1034E0008EE090E09F8B8E8B84E090E0998F888FA8
:1034F0000C94B40E61EE77E0CE010E946D288BE44F
:1035000090E0998B888B9B8B8A8B89E090E09D8BD8
:103510008C8B8EE090E09F8B8E8B198E188E0C9486
:10352000B40E68EE77E0CE010E946D2884E190E051
:10353000998B888B9B8B8A8B81E090E09D8B8C8B09
:1035400082E090E09F8B8E8B83E090E0998F888F54
:103550000C94B40E61EF77E0CE010E946D288FE5E8
:1035600090E0998B888B9B8B8A8B8AE090E09D8B77
:103570008C8B8FE090E09F8B8E8B83E090E0998F17
:10358000888F0C94B40E6AEF77E0CE010E946D280C
:1035900082E890E0998B888B9B8B8A8B88E090E007
:1035A0009D8B8C8B8DE090E09F8B8E8B8BE090E0E1
:1035B000998F888F0C94B40E61E078E0CE010E9460
:1035C0006D2880E390E0998B888B9B8B8A8B84E0BD
:1035D00090E09D8B8C8B87E090E09F8B8E8B198E7B
:1035E000188E0C94B40E67E078E0CE010E946D282E
:1035F00087E390E0998B888B9B8B8A8B84E090E0AB
:103600009D8B8C8B87E090E09F8B8E8B198E188E14
:103610000C94B40E6DE078E0CE010E946D2882E833
:1036200090E0998B888B9B8B8A8B88E090E09D8BB8
:103630008C8B8DE090E09F8B8E8B83E090E0998F58
:10364000888F0C94B40E66E178E0CE010E946D285C
:1036500081E490E0998B888B9B8B8A8B89E090E04A
:103660009D8B8C8B8EE090E09F8B8E8B87E090E023
:10367000998F888F0C94B40E6EE178E0CE010E9491
:103680006D2881E490E0998B888B9B8B8A8B8AE0F4
:1036900090E09D8B8C8B8FE090E09F8B8E8B82E0F7
:1036A00090E0998F888F0C94B40E66E278E0CE019A
:1036B0000E946D2881E490E0998B888B9B8B8A8B8C
:1036C00086E090E09D8B8C8B89E090E09F8B8E8BC9
:1036D000198E188E0C94B40E6EE278E0CE010E9422
:1036E0006D2883E290E0998B888B9B8B8A8B85E099
:1036F00090E09D8B8C8B88E090E09F8B8E8B8DE093
:1037000090E0998F888F0C94B40E66E378E0CE0138
:103710000E946D2886E490E0998B888B9B8B8A8B26
:1037200088E090E09D8B8C8B8CE090E09F8B8E8B63
:103730008DE090E0998F888F0C94B40E6EE378E062
:10374000CE010E946D288EE190E0998B888B9B8B37
:103750008A8B85E090E09D8B8C8B88E090E09F8B3E
:103760008E8B8DE090E0998F888F0C94B40E65E479
:1037700078E0CE010E946D288CE390E0998B888BD5
:103780009B8B8A8B89E090E09D8B8C8B8EE090E008
:103790009F8B8E8B8DE090E0998F888F0C94B40E68
:1037A0006EE478E0CE010E946D2880E590E0998B70
:1037B000888B9B8B8A8B8AE090E09D8B8C8B8FE033
:1037C00090E09F8B8E8B85E090E0998F888F0C9492
:1037D000B40E69E578E0CE010E946D2880EA90E0A1
:1037E000998B888B9B8B8A8B88E090E09D8B8C8B50
:1037F0008DE090E09F8B8E8B198E188E0C94B40EFA
:1038000061E678E0CE010E946D288AE590E0998B10
:10381000888B9B8B8A8B8AE090E09D8B8C8B8FE0D2
:1038200090E09F8B8E8B8BE090E0998F888F0C942B
:10383000B40E6AE678E0CE010E946D288AE590E039
:10384000998B888B9B8B8A8B8AE090E09D8B8C8BED
:103850008FE090E09F8B8E8B87E090E0998F888F30
:103860000C94B40E61E778E0CE010E946D288AE5E1
:1038700090E0998B888B9B8B8A8B8AE090E09D8B64
:103880008C8B8FE090E09F8B8E8B82E090E0998F05
:10389000888F0C94B40E69E778E0CE010E946D2801
:1038A00089E290E0998B888B9B8B8A8B85E090E0F6
:1038B0009D8B8C8B88E090E09F8B8E8B8EE090E0D0
:1038C000998F888F0C94B40E61E878E0CE010E9445
:1038D0006D288DE390E0998B888B9B8B8A8B87E09A
:1038E00090E09D8B8C8B8BE090E09F8B8E8B8EE09D
:1038F00090E0998F888F0C94B40E6BE878E0CE013D
:103900000E946D288BE590E0998B888B9B8B8A8B2E
:103910008AE090E09D8B8C8B8FE090E09F8B8E8B6C
:103920008EE090E0998F888F0C94B40E65E978E072
:10393000CE010E946D288AE690E0998B888B9B8B44
:103940008A8B8CE090E09D8B8C8B82E190E09F8B4A
:103950008E8B8AE090E0998F888F0C94B40E6CE97E
:1039600078E0CE010E946D2884E690E0998B888BE8
:103970009B8B8A8B8AE090E09D8B8C8B2FE030E0D4
:103980003F8B2E8B998F888F0C94B40E68ED73E06B
:10399000CE010E946D28198B088B1B8B0A8BDD8A48
:1039A000CC8AFF8AEE8A198E188E0C94B40E8F92F0
:1039B0009F92AF92BF92CF92DF92EF92FF920F93BE
:1039C0001F93CF93DF93CDB7DEB7CF57D1090FB693
:1039D000F894DEBF0FBECDBF0091510A1091520A7C
:1039E000E8961FAE1EAEE897EA961FAE1EAEEA97A7
:1039F000EC961FAE1EAEEC97EE961FAE1EAEEE9787
:103A0000C258DF4F19821882CE57D040AE014A58B3
:103A10005F4F63E081E00E943D07AE0148585F4F71
:103A200062E081E00E943D07AE0146585F4F64E0CE
:103A300081E00E943D07AE0144585F4F60E081E0A5
:103A40000E943D07AE0142585F4F61E081E00E9455
:103A50003D070230110509F03AC18091510A909159
:103A6000520A20910B0230910C022817390769F095
:103A700010924F0A90930C0280930B0210924E0A00
:103A800010924D0A81E080930A0280914F0A8111C1
:103A900012C0E7968FADE79780934C0AE9968FADF9
:103AA000E99780934B0AEB968FADEB9780934A0A88
:103AB00081E080934F0A80914D0A90914E0A18162A
:103AC000190654F4019790934E0A80934D0A892B5E
:103AD00019F481E080930A0280910A02882309F494
:103AE00040C080914D0A90914E0A892BD1F560918A
:103AF000080270910902CE0101960E945609CE017A
:103B000003969F938F9380EA98E09F938F931F92E1
:103B100051E1F52EFF928E010B591F4F1F930F930A
:103B20000E9474288091490A8F938091480A8F934C
:103B300086EA98E09F938F931F92FF927E018DE318
:103B4000E80EF11CFF92EF920E947428B701C801A1
:103B50000E94640710920A020FB6F894DEBF0FBEEF
:103B6000CDBFE8968EAD9FADE897019709F091C063
:103B700080914C0A81118DC08091480A9091490A28
:103B800001969093490A8093480A21E020930A0203
:103B90002091460A3091470A821793070CF479C0A6
:103BA0006091080270910902CE0101960E945609A7
:103BB000CBACDCACC114D10429F15E01B3E1AB0E96
:103BC000B11CF12CE12C10E000E0EC14FD0474F5C4
:103BD000F501819091905F01C4010E941003811151
:103BE0000DC0F801EE0FFF1F81E090E08C0F9D1FCC
:103BF000E80FF91F95AE84AE0F5F1F4F9FEFE91AD4
:103C0000F90AE3CF1092450A1092440A8091080203
:103C1000909109020E949F0D882339F187E090E07E
:103C20000E942C0581E080930A0233C00115110522
:103C300049F30E9482279801110F440B550B0E94F3
:103C4000DA27660F771FA1E0B0E0AC0FBD1F6A0F47
:103C50007B1FFB0184AD95AD9093450A8093440A88
:103C6000892BA1F283E090E0DBCF1092490A1092F9
:103C7000480A0E94822728E030E040E050E00E949D
:103C8000DA276D5F7F4F8F4F9F4F7093470A609386
:103C9000460AE7968FADE79780934C0AEA968EAD79
:103CA0009FADEA97019769F480914B0A811109C091
:103CB0001092430A88E090E00E942C0581E08093F6
:103CC0000A02E9968FADE99780934B0A96C00330BC
:103CD000110509F0AAC08091510A9091520A2091D1
:103CE0000602309107022817390731F01092420A74
:103CF00090930702809306028091420A81110DC0C1
:103D0000E9968FADE99780934B0AEB968FADEB97D1
:103D100080934A0A81E08093420A80910A028823B4
:103D200061F16091440A7091450A8E010F5F1F4F47
:103D3000C8010E94DE0D1F930F9381EB98E09F93C3
:103D40008F931F9281E18F930C591F4F1F930F93F5
:103D50000E9474286CEB78E0CE01CD960E946D280D
:103D6000BE01635C7F4FC8010E94640710920A0283
:103D70000FB6F894DEBF0FBECDBFEA968EAD9FADF5
:103D8000EA978130910509F04DC020914B0A21112D
:103D900049C011E010934B0A84E090E00E942C058A
:103DA00010930A02EC968EAD9FADEC978130910591
:103DB00009F09CC320914A0A211198C311E0109385
:103DC0004A0A1092490A1092480A0E94822728E063
:103DD00030E040E050E00E94DA276D5F7F4F8F4F68
:103DE0009F4F7093470A6093460A10924F0A82E0F1
:103DF00090E00E942C0510930A0282E0C158DF4F28
:103E00000FB6F894DEBF0FBECDBFDF91CF911F91EB
:103E10000F91FF90EF90DF90CF90BF90AF909F9069
:103E20008F90089580934B0ABDCF0430110509F09F
:103E300065C080910A02882371F06DE679E08CEC10
:103E400098E00E94640710920A0284E690E0909342
:103E5000410A8093400A0091400A1091410A1016CD
:103E600011065CF6015011091093410A0093400AB3
:103E70000115110511F60E94822724E630E040E08A
:103E800050E00E94DA2786E090E06233710584F505
:103E90008091440A9091450A01978739910598F4D9
:103EA000FC0123E0F595E7952A95E1F7E658F54FF3
:103EB0008770992721E030E001C0220F8A95EAF748
:103EC0008081822B8083F12CE12C0F5F1F4FC80172
:103ED0000E941003882319F09FEFE91AF90A0739A5
:103EE000110599F7F0923F0AE0923E0A85E090E0D2
:103EF0000E942C0581E080930A027FCF05301105D6
:103F000009F0ADC080910A02882309F452C0609183
:103F1000440A7091450A8E010F5F1F4FC8010E942D
:103F2000DE0D1F930F938DED98E09F938F931F925B
:103F300091E1F92EFF920C591F4F1F930F930E948E
:103F4000742880913F0A8F9380913E0A8F9389EE67
:103F500098E09F938F931F92FF927E01ADE3EA0E4C
:103F6000F11CFF92EF920E947428B701C8010E94D1
:103F7000640710920A0288EC90E09093410A8093C3
:103F8000400A10923D0A10923C0A10923B0A0FB66A
:103F9000F894DEBF0FBECDBF80913E0A90913F0ADC
:103FA0008739910534F08CE291E09093410A809337
:103FB000400A80913C0A90913D0A01968530910516
:103FC00034F590933D0A80933C0A8091400A909189
:103FD000410A181619060CF010CF01979093410A68
:103FE0008093400A892B09F008CF60E084E10E94A9
:103FF000940360E085E10E94940380913E0A9091D1
:104000003F0A87399105FCF089E090E071CF10926A
:104010003D0A10923C0A80913B0A91E0811190E0A8
:1040200090933B0A811106C050E040E060E00E949E
:104030003D07CBCF60E084E10E94940360E085E11E
:104040000E949403C2CF80910802909109020E94BD
:104050009F0D882309F443C087E090E049CF0630E4
:10406000110509F071C080910A028823A1F069EF5F
:1040700078E082E099E00E94640710920A0288ECDE
:1040800090E09093410A8093400A10923D0A10926A
:104090003C0A10923B0A80913C0A90913D0A01969D
:1040A00085309105ACF590933D0A80933C0A809150
:1040B000400A9091410A181619060CF09ECE0197FD
:1040C0009093410A8093400A892B09F096CE60E0D4
:1040D00084E10E94940360E085E10E9494031092C1
:1040E000490A1092480A0E94822728E030E040E006
:1040F00050E00E94DA276D5F7F4F8F4F9F4F709384
:10410000470A6093460A10924F0A82E090E0F0CE90
:1041100010923D0A10923C0A80913B0A91E0811175
:1041200090E090933B0A811106C050E040E061E0CE
:104130000E943D07BCCF60E084E10E94940360E0F0
:1041400085E10E949403B3CF0730110509F066C0E2
:1041500080910A02882399F1609108027091090206
:10416000CE0101960E945609CE0103969F938F932C
:1041700081E199E09F938F931F9281E18F938E014C
:104180000B591F4F1F930F930E9474286EE179E023
:10419000CE01CD960E946D28BE01635C7F4FC801A1
:1041A0000E94640710920A0288EC90E090934E0AF5
:1041B00080934D0A0FB6F894DEBF0FBECDBF80913D
:1041C0004D0A90914E0A181619060CF016CE01975A
:1041D00090934E0A80934D0A892B09F00ECE809160
:1041E00008029091090201969093090280930802B7
:1041F00088970CF474CF80913E0A90913F0A8739DA
:1042000091052CF089E090E00E942C0568CF81E0B8
:1042100090E0909309028093080261CF0830110565
:1042200009F098C18091040290910502089731F03D
:104230001092430A10930502009304028091430AEE
:10424000811122C0E7968FADE79780934C0AE996DB
:104250008FADE99780934B0AEB968FADEB978093E8
:104260004A0AED968FADED9780933A0AEF968FAD9F
:10427000EF978093390A1092380A1092370A81E03A
:104280008093430A80930A0280910A02882379F17D
:10429000E090370AF090380ADE0111966D018E0128
:1042A000035C1F4FE114F10409F089C060E379E079
:1042B000C8010E946D2880913F0A8F9380913E0A29
:1042C0008F9388E399E09F938F931F9281E18F935F
:1042D000DF92CF920E947428B601C8010E94640741
:1042E0000FB6F894DEBF0FBECDBF10920A02E8965B
:1042F000EEACFFACE89791E0E916F10421F480916F
:104300004C0A882351F0EA968EAD9FADEA9701974B
:1043100011F580914B0A81111EC08091370A90914E
:10432000380A892BC1F480913E0A90913F0A1816F1
:1043300019068CF410E000E00F5F1F4FC8010E94C7
:104340001003882309F468C01093380A0093370AD1
:1043500081E080930A02E0924C0AE9968FADE997DA
:1043600080934B0AEE96AEACBFACEE97A1E0AA16D6
:10437000B10409F070C080913A0A81116CC0C090FC
:10438000370AD090380A1C141D040CF064C0860152
:10439000015011090115110509F445C07801C80142
:1043A0000E941003015011098823A1F3CE14DF04E9
:1043B00009F04AC01092380A1092370A49C0B70172
:1043C000CD010E94DE0DDF92CF92FF92EF9288E442
:1043D00099E09F938F931F9281E1D82EDF927E0107
:1043E000F5E6EF0EF11CFF92EF920E9474288A8985
:1043F0008F9389898F938C898F938B898F9381E594
:1044000099E09F938F931F92DF921F930F930E94C7
:104410007428B801C70162CF0739110509F08CCFA4
:1044200010E000E091CF06E910E00C151D0514F234
:104430007801BFEFEB1AFB0AC7010E94100381113C
:10444000B5CF01501109F1CFF092380AE092370A46
:1044500081E080930A02A0923A0AC258DF4FC880D6
:10446000D980CE57D040E1E0CE16D10411F580912D
:10447000390A81111EC0E090370AF090380AE11421
:10448000F104E9F580913E0A90913F0A1816190649
:1044900084F410E000E00F5F1F4FC8010E9410037A
:1044A000882339F11093380A0093370A81E080930A
:1044B0000A02C092390AEC968EAD9FADEC97019737
:1044C00091F480914A0A81110EC08091370A90912F
:1044D000380A18161906BCF51092380A1092370AD5
:1044E00081E080930A02EB968FADEB9780934A0AA6
:1044F00084CC0739110579F610E000E0D3CF8701AD
:10450000073911057CF40F5F1F4FC8010E9410038B
:104510008823B1F3101611068CF01092380A10920D
:10452000370AC4CF10E000E00E151F05B4F70F5F87
:104530001F4FC8010E9410038823B1F30E151F05F9
:1045400009F0B0CFEACF10924F0A82E090E00E94CB
:104550002C05C6CF0930110581F580910A02882308
:1045600081F06AE579E08EE699E00E94640750E008
:1045700040E060E080E00E943D0710920A02109245
:104580004C0AE8968EAD9FADE897019781F4809133
:104590004C0A81110CC050E040E061E00E943D07F0
:1045A00090E080E00E942C0581E080930A02E7966B
:1045B0008FADE79780934C0A20CC0115110509F4C3
:1045C00011C10130110509F018CC8091510A909168
:1045D000520A20910202309103022817390761F034
:1045E0001092340A90930302809302028FEF9FEFA0
:1045F00090930102809300028091340A81111CC0C3
:10460000E7968FADE79780934C0AE9968FADE997CF
:1046100080934B0AEB968FADEB9780934A0AED9609
:104620008FADED9780933A0AEF968FADEF97809319
:10463000390A81E08093340A80910A02882371F05C
:104640006DE679E08FE799E00E94640710920A0214
:104650008FEF9FEF90930102809300028091350AC3
:104660009091360A209100023091010228173907F3
:1046700031F18130910509F403C18230910509F4CB
:1046800006C16FE879E0892B09F4FCC01DAE81E01A
:104690008EAFAE01435C5F4F63E082E00E943D0756
:1046A000AE014F5F5F4F62E082E00E943D07809164
:1046B000350A9091360A9093010280930002EE969B
:1046C0002EAD3FADEE972130310589F480913A0A45
:1046D00081110DC08091350A9091360A029663E0EF
:1046E00070E00E943D289093360A8093350A20930B
:1046F0003A0AC258DF4F28813981CE57D040213045
:10470000310589F48091390A81110DC08091350AF3
:104710009091360A019663E070E00E943D289093E4
:10472000360A8093350A2093390AE8962EAD3FADBC
:10473000E8972130310521F480914C0A882361F0FB
:10474000EA968EAD9FADEA978130910509F0A2C03F
:1047500040914B0A41119EC08091350A9091360AD2
:104760006DE979E08130910531F061E979E00297F6
:1047700011F46AEA79E0CE0101960E946D2881E089
:1047800090E090930902809308021092490A1092D7
:10479000480A0E94822728E030E040E050E00E9472
:1047A000DA276D5F7F4F8F4F9F4F7093470A60935B
:1047B000460AE7968FADE79780934C0AE9968FAD4E
:1047C000E99780934B0A10924A0A10923A0A109283
:1047D000390A10924F0A8FEF9FEF90930C0280934B
:1047E0000B0293CC1092360A1092350A81E090E0C9
:1047F00090930902809308021092490A1092480A85
:104800001092470A1092460A10923F0A10923E0AEE
:104810001092410A1092400A10924E0A10924D0ACC
:1048200080930A02EAE7FAE083E1DF011D928A95AC
:10483000E9F710924C0A10924B0A10924A0A109211
:104840003A0A1092390A10924F0A8FEF9FEF909315
:104850000C0280930B021092420A909307028093FD
:1048600006021092340A90930302809302029093FE
:1048700001028093000281E090E00E942C05BDCAF5
:104880006BE979E0CE0101960E946D28FFCE68EABF
:1048900079E0F8CF20934C0A17CA20911D0A2223F1
:1048A00089F0009779F0BC01FC0101900020E9F744
:1048B0003197AF01481B590B8AE29BE00E94F40339
:1048C00080E0089581E008951F920F920FB60F9235
:1048D00011242F933F938F939F93AF93BF93809116
:1048E000760A9091770AA091780AB091790A30916E
:1048F000750A23E0230F2D3758F50196A11DB11D30
:104900002093750A8093760A9093770AA093780A89
:10491000B093790A8091710A9091720AA091730AFA
:10492000B091740A0196A11DB11D8093710A9093F4
:10493000720AA093730AB093740ABF91AF919F91CA
:104940008F913F912F910F900FBE0F901F90189550
:1049500026E8230F0296A11DB11DD2CF1F920F9200
:104960000FB60F9211240BB60F922F933F934F93D4
:104970005F936F937F938F939F93AF93BF93EF93C7
:10498000FF938DE89AE00E946804FF91EF91BF9138
:10499000AF919F918F917F916F915F914F913F91D7
:1049A0002F910F900BBE0F900FBE0F901F90189578
:1049B0001F920F920FB60F9211240BB60F922F93E6
:1049C0008F939F93EF93FF93E0919D0AF0919E0A3E
:1049D0008081E091A30AF091A40A82FD1DC090811C
:1049E0008091A60A8F5F8F732091A70A821741F0EA
:1049F000E091A60AF0E0E357F54F958F8093A60A61
:104A0000FF91EF919F918F912F910F900BBE0F907F
:104A10000FBE0F901F9018958081F2CF1F920F92BA
:104A20000FB60F9211240BB60F922F933F934F9313
:104A30005F936F937F938F939F93AF93BF93EF9306
:104A4000FF93E0910D02F0910E021995FF91EF9105
:104A5000BF91AF919F918F917F916F915F914F9196
:104A60003F912F910F900BBE0F900FBE0F901F9094
:104A70001895EDE8FAE01382128288EE93E0A0E048
:104A8000B0E084839583A683B78387E492E0918323
:104A9000808385EC90E09587848784EC90E097870D
:104AA000868780EC90E0918B808B81EC90E0938BFB
:104AB000828B82EC90E0958B848B86EC90E0978BD8
:104AC000868B118E128E138E148EEAE2FBE0138217
:104AD000128289E592E0918380838CE084838FEF5A
:104AE00085838BE0868385E0878384E0808783E00D
:104AF000818782E08287138614861586168617863C
:104B000081E00C946C08CF93DF9300D000D0CDB738
:104B1000DEB7789484B5826084BD84B5816084BD3D
:104B200085B5826085BD85B5816085BD80916E004B
:104B3000816080936E00109281008091810082607C
:104B400080938100809181008160809381008091B9
:104B500080008160809380008091B10084608093A8
:104B6000B1008091B00081608093B000809191008D
:104B70008260809391008091910081608093910088
:104B8000809190008160809390008091A10082606C
:104B90008093A1008091A10081608093A100809109
:104BA000A00081608093A0008091210182608093A9
:104BB0002101809121018160809321018091200158
:104BC00081608093200180917A00846080937A00D4
:104BD00080917A00826080937A0080917A0081606F
:104BE00080937A0080917A00806880937A00109296
:104BF000C10086E0E3E1F2E0DE01119601900D9242
:104C00008A95E1F71092500A80E00E949C0781E0AB
:104C10000E949C0782E00E949C07E0919D0AF0910F
:104C20009E0A82E08083E091990AF0919A0A1082AC
:104C3000E0919B0AF0919C0A8FEC80831092A50A68
:104C4000E091A10AF091A20A86E08083E0919F0A98
:104C5000F091A00A808180618083E0919F0AF091A9
:104C6000A00A808188608083E0919F0AF091A00A69
:104C7000808180688083E0919F0AF091A00A808102
:104C80008F7D808380917B00877F80937B0080E491
:104C900080937C0080917A00806480937A00809178
:104CA0007A0086FDFCCF6091780070917900072E24
:104CB000000C880B990B611571058105910511F0A8
:104CC0000E94D1271092520A1092510A1092540A4F
:104CD0001092530A2FB7F8948091760A9091770A30
:104CE000A091780AB091790A2FBF8093550A9093CA
:104CF000560AA093570AB093580AEAE7FAE083E10C
:104D0000DF011D928A95E9F71092700A10926F0ADE
:104D100010926E0A10926D0ACE0101960E946E05E5
:104D200080E1809381001092800080E197E290936F
:104D300087008093860082E18093810084E495E07F
:104D400090930E0280930D0281E080936F000AE041
:104D500010E020916F0A3091700A80916D0A909155
:104D60006E0A28173907A9F380916F0A9091700A8B
:104D70000196B8010E943D28E0906F0AF090700AF9
:104D800040916D0A50916E0A9701220F331F275AE6
:104D9000354FF901A081B18148175907B1F0FC01E5
:104DA000EE0FFF1FE75AF54F0190F081E02D44818F
:104DB000558114962D913C91421753070CF47C01B8
:104DC0000196B8010E943D28DBCFE0916F0AF09177
:104DD000700AEE0FFF1FE75AF54F80819181F901AC
:104DE00091838083E0916F0AF091700AEE0FFF1FAC
:104DF000E75AF54FB183A083E0916F0AF091700AF2
:104E0000EE0FFF1FE75AF54F0190F081E02D8481EE
:104E100095811816190684F3E0916F0AF091700AD3
:104E2000EE0FFF1FE75AF54F0190F081E02D019042
:104E3000F081E02D1995823061F4E0916F0AF091D4
:104E4000700AEE0FFF1FE75AF54F808191810E9493
:104E50006E0580916F0A9091700A0196B8010E94C8
:104E60003D289093700A80936F0A73CF8F929F9220
:104E7000AF92BF92CF92DF92EF92FF92CF93DF93E8
:104E8000EC01688179818A819B81611571058105B9
:104E9000910521F464E279ED8BE597E02DE133EFA4
:104EA00041E050E00E94DA2749015A019B01AC0120
:104EB000A7EAB1E40E94F9276B017C01ACEEB4EFE4
:104EC000A50194010E940728C60ED71EE81EF91EF0
:104ED000F7FE06C081E0C81AD108E10880E8F80AA8
:104EE000C882D982EA82FB82C701B6019F77DF912F
:104EF000CF91FF90EF90DF90CF90BF90AF909F90B9
:104F00008F9008958F929F92AF92BF92CF92DF922F
:104F1000EF92FF9260910F02709110028091110246
:104F200090911202611571058105910521F464E2E9
:104F300079ED8BE597E02DE133EF41E050E00E9401
:104F4000DA2749015A019B01AC01A7EAB1E40E94AA
:104F5000F9276B017C01ACEEB4EFA50194010E942E
:104F60000728C60ED71EE81EF91EF7FE06C081E010
:104F7000C81AD108E10880E8F80AC0920F02D0925E
:104F80001002E0921102F0921202C701B6019F775F
:104F9000FF90EF90DF90CF90BF90AF909F908F9059
:104FA000089560930F027093100280931102909302
:104FB00012020895052E97FB1EF400940E94F1271B
:104FC00057FD07D00E940C2807FC03D04EF40C9428
:104FD000F12750954095309521953F4F4F4F5F4FAA
:104FE000089590958095709561957F4F8F4F9F4F55
:104FF00008950E942E28A59F900DB49F900DA49F08
:10500000800D911D11240895B7FF0C94F9270E947B
:10501000F927821B930B0895A1E21A2EAA1BBB1B32
:10502000FD010DC0AA1FBB1FEE1FFF1FA217B30774
:10503000E407F50720F0A21BB30BE40BF50B661F8A
:10504000771F881F991F1A9469F76095709580954E
:1050500090959B01AC01BD01CF010895A29FB001C5
:10506000B39FC001A39F700D811D1124911DB29F9C
:10507000700D811D1124911D089597FB072E16F4C4
:10508000009407D077FD09D00E94592807FC05D06D
:105090003EF4909581959F4F0895709561957F4F4F
:1050A0000895EE0FFF1F881F8BBF0790F691E02D2C
:1050B0001994AA1BBB1B51E107C0AA1FBB1FA6174F
:1050C000B70710F0A61BB70B881F991F5A95A9F7B1
:1050D00080959095BC01CD010895FB01DC01019004
:1050E0000D920020E1F708950F931F93CF93DF9364
:1050F000CDB7DEB72E970FB6F894DEBF0FBECDBF8B
:105100000E891F89888D998D26E02C831A83098347
:1051100097FF02C080E090E801979E838D83AE01E7
:10512000445E5F4F6A8D7B8DCE0101960E94B1284F
:105130004D815E8157FD0AC02F8138854217530784
:105140000CF49A01020F131FF80110822E960FB66D
:10515000F894DEBF0FBECDBFDF91CF911F910F91AD
:1051600008952F923F924F925F926F927F928F920B
:105170009F92AF92BF92CF92DF92EF92FF920F93E6
:105180001F93CF93DF9300D000D000D01F921F92C7
:10519000CDB7DEB77C013B018A01FC011782168284
:1051A000838181FFDDC1CE0101965C01F70193810E
:1051B000F30193FD859193FF81913F01882309F4C9
:1051C00053C1853239F493FD859193FF81913F015D
:1051D000853229F4B70190E00E94C92AE7CF912CCB
:1051E000212C312CFFE1F31538F08B3211F190F4C2
:1051F000803209F1833229F137FC3CC020ED280FC1
:105200002A3050F536FE20C08AE0989E200D1124E9
:10521000922E06C08D3291F0803371F7689430F889
:10522000F30193FD859193FF81913F018111DACFC5
:1052300021C0689431F8689432F8F2CF689433F85A
:10524000EFCF689434F8ECCFEAE02E9E200D1124C5
:10525000222E689435F8E4CF8E3229F436FC04C14E
:10526000689436F8DDCF8C3619F4689437F8D8CFC7
:105270008836B1F2982F9F7D95549330E0F08336B5
:10528000A1F18337C1F1833509F063C02801F2E051
:105290004F0E511CF801C080D180692D70E036FCA2
:1052A00002C06FEF7FEFC6010E94B32A4C016894E1
:1052B00037F882010AC00C5F1F4FFFE3F98388248F
:1052C0008394912C6501E89437F833FE2DC0522C5D
:1052D0008114910471F5552009F468CFB70180E27B
:1052E00090E00E94C92A5A94F6CFF8018081898300
:1052F0000E5F1F4FE4CF2801F2E04F0E511CF80162
:10530000C080D180692D70E036FC02C06FEF7FEF66
:10531000C6010E94BE2A4C018201D5CFB70180E2AE
:1053200090E00E94C92A2A942814190409F0B0F7C1
:10533000CECFF60137FC859137FE81916F01B70121
:1053400090E00E94C92A51105A94F1E08F1A9108F6
:10535000BFCF843619F0893609F077C0F80137FEDF
:105360006BC060817181828193810C5F1F4FF32D2F
:10537000FF763F2E97FF09C09095809570956195B7
:105380007F4F8F4F9F4F689437F82AE030E0A50198
:105390000E94F92AC82ECA188C2C432C36FE0CC049
:1053A000E89440F8C91440F434FE05C032FC03C050
:1053B000F32DFE7E4F2E892C44FEAAC0FE01EC0D7B
:1053C000F11D8081803309F09CC0242D297E422E5E
:1053D000842D8870582E43FCAAC040FEA4C09C2C8B
:1053E000821418F42C0C922C981844FEA6C0B70115
:1053F00080E390E00E94C92A42FE09C088E790E05D
:1054000041FE02C088E590E0B7010E94C92AC91494
:1054100008F49FC0CA94D12C9FEFC91AD90ACA0CAC
:10542000DB1CF60182916F01B70190E00E94C92A4E
:10543000AC14BD04B1F74FCF60817181072E000C11
:10544000880B990B0E5F1F4F92CFD32CE894D4F8A2
:105450002AE030E08537E1F1232D297FD22E8F36E7
:10546000A9F1F0F4883551F1F701868197812B96E7
:105470000FB6F894DEBF0FBECDBFDF91CF911F9165
:105480000F91FF90EF90DF90CF90BF90AF909F90E3
:105490008F907F906F905F904F903F902F900895E6
:1054A000803749F0883701F7D4FE02C06894D2F8FB
:1054B00020E130E00DC06894D4F8F6CF34FE03C08C
:1054C000822F8660D82E20E132E002C028E030E052
:1054D000F801D7FE0FC060817181828193810C5FDA
:1054E0001F4FA5010E94F92AC82ECA183D2CE89426
:1054F00037F852CF6081718190E080E00E5F1F4FDE
:10550000F0CF42FC02C0839463CF8394839460CF36
:10551000842D867809F45CCFF6CFB70180E290E065
:105520000E94C92A83948214C0F3512C5ECF522C5E
:105530005818821408F459CFF8CF842D867809F4CE
:1055400066CF8BE241FE80E247FC8DE2B70190E03E
:105550005CCFB70180E390E00E94C92A9A9457CFAC
:105560008FEF9FEF84CFFC010590615070400110D8
:10557000D8F7809590958E0F9F1F0895FC0161507C
:10558000704001900110D8F7809590958E0F9F1F65
:1055900008950F931F93CF93DF93182F092FEB01DB
:1055A0008B8181FD09C01FEF0FEF812F902FDF91BD
:1055B000CF911F910F91089582FF14C02E813F81DA
:1055C0008C819D81281739073CF4E881F981CF014E
:1055D00001969983888310838E819F8101969F8392
:1055E0008E83E3CFE885F985812F1995892BA1F367
:1055F000DACFFA01AA27283051F1203181F1E8945D
:105600006F936E7F6E5F7F4F8F4F9F4FAF4FB1E0B5
:105610003ED0B4E03CD0670F781F891F9A1FA11DB0
:10562000680F791F8A1F911DA11D6A0F711D811DB1
:10563000911DA11D20D009F468943F912AE0269F76
:1056400011243019305D3193DEF6CF010895462FD5
:105650004770405D4193B3E00FD0C9F7F6CF462FB6
:105660004F70405D4A3318F0495D31FD405241931F
:1056700002D0A9F7EACFB4E0A695979587957795DC
:105680006795BA95C9F700976105710508959B0163
:10569000AC010A2E06945795479537952795BA95EC
:1056A000C9F7620F731F841F951FA01D0895F894FA
:0256B000FFCF2A
:1056B200FFFFFFFFFFFFFFFF010001FFFFF30301F9
:1056C200000000D71C01000000A605FF05E1051D32
:1056D200001E00200021002B002C002E002F003085
:1056E200003100660067006F00700073007B007F6E
:1056F200008000000000008A04F4032104D7045251
:105702000430044404000000005009F40329052871
:1057120005524F555445203100524F5554452032C1
:1057220000564952494449414E204600524F555471
:10573200452033004D542E204D4F4F4E00524F55B1
:105742005445203400524F55544520323400524FB4
:1057520055544520323500524F555445203500529C
:105762004F555445203600524F5554452031310093
:105772004449474C455454204341564500524F55E5
:105782005445203700524F555445203800524F554A
:105792005445203900524F55544520313000524F64
:1057A200434B2054554E4E454C00504B4D4E2054C9
:1057B2004F5745520053494C504820434F2E004604
:1057C2004947485420444F4A4F0047414D452043E2
:1057D2004F524E455200524F434B45542042415383
:1057E2004500524F55544520313200524F555445D1
:1057F20020313300524F55544520313400524F5519
:10580200544520313500534146415249205A4F4EAA
:105812004500524F55544520313600524F5554459C
:1058220020313700524F55544520313800524F55E0
:10583200544520313900524F5554452032300053DF
:105842004541464F414D20495300524F5554452042
:10585200323100504B4D4E204D414E53494F4E0078
:10586200524F55544520323200524F555445203242
:105872003300564943544F525920524400494E4432
:1058820049474F20504C5400554E4B4E4F574E00F7
:10589200495659534155520056454E55534155525A
:1058A20000434841524D454C454F4E0043484152FA
:1058B200495A41524400574152544F52544C4500A8
:1058C200424C4153544F4953450043415445525071
:1058D2004945004D455441504F44004255545445AA
:1058E200524652454500574545444C45004B414BB5
:1058F200554E41004245454452494C4C00504944A2
:105902004745590050494447454F54544F00504968
:105912004447454F5400524154544154410052416E
:105922005449434154450053504541524F57004654
:105932004541524F5700454B414E53004152424F51
:105942004B0050494B414348550052414943485549
:105952000053414E4453485245570053414E44531D
:105962004C415348004E49444F52414E46004E4925
:10597200444F52494E41004E49444F515545454EC0
:10598200004E49444F52414E4D004E49444F5249F8
:105992004E4F004E49444F4B494E4700434C4546FB
:1059A2004149525900434C454641424C45005655E7
:1059B2004C504958004E494E4554414C4553004ABB
:1059C2004947474C595055464600574947474C5955
:1059D20054554646005A5542415400474F4C4241A5
:1059E20054004F444449534800474C4F4F4D0056D2
:1059F200494C45504C554D45005041524153005081
:105A0200415241534543540056454E4F4E41540076
:105A120056454E4F4D4F5448004449474C45545407
:105A2200004455475452494F004D454F5754480082
:105A32005045525349414E005053594455434B002F
:105A4200474F4C4455434B004D414E4B4559005036
:105A520052494D454150450047524F574C495448D1
:105A62004500415243414E494E4500504F4C495723
:105A7200414700504F4C49574849524C00504F4CF7
:105A8200495752415448004B41444142524100411E
:105A92004C414B415A414D004D4143484F50004DFE
:105AA2004143484F4B45004D414348414D50004210
:105AB200454C4C5350524F55540057454550494E52
:105AC20042454C4C005649435452454542454C00D0
:105AD20054454E5441434F4F4C0054454E5441435C
